:100000000C942A000C9436000C9434000C943400A8
:100010000C9434000C9434000C9434000C94340090
:100020000C9434000C9434000C9434000C94340080
:100030000C9434000C9434000C9434000C94340070
:100040000C9434000C9434000C9434000C94340060
:100050000C94340011241FBECFE5D8E0DEBFCDBF25
:100060000E9463000C947D000C9400001F920F927C
:100070000FB60F9211242F933F934F935F936F937B
:100080008F939F9380E593EC0197F1F735B320E0D0
:1000900040E553EC6FEF15BACA010197F1F765BB64
:1000A000CA010197F1F72F5F2530A9F735BB9F9162
:1000B0008F916F915F914F913F912F910F900FBE54
:1000C0000F901F90189584E081BB82BB8FEF84BB9B
:1000D00081E085BB80E48BBF83E085BF789441E0FD
:1000E00020E533ECAF9B02C045BB03C085B3880F4E
:0E00F00085BBC9010197F1F7F5CFF894FFCF5A
:00000001FF
